:020000040800F2
:10000000F81900204501000859380008213300087C
:1000100055380008150900082140000800000000BC
:100020000000000000000000000000008938000807
:1000300029090008000000005D3800088B3800081E
:100040005F0100085F0100085F0100085F01000810
:100050005F0100085F0100085F0100085F01000800
:100060005F0100085F0100085F010008190900082E
:100070005F0100085F0100085F0100085F010008E0
:100080005F0100085F010008A90800085F0100087F
:100090005F0100085F0100085F0100085F010008C0
:1000A0005F0100085F0100085F0100085F010008B0
:1000B0005F010008193900085F0100085F010008AE
:1000C0005F0100085F0100085F0100085F01000890
:1000D0005F010008F13F00080140000811400008DE
:1000E0005F0100085F0100085F0100085F01000870
:1000F0005F0100085F0100085F0100085F01000860
:100100005F0100085F0100085F0100085F0100084F
:10011000053C0008153C00085F010008293900086B
:100120005F0100085F0100085F0100085F0100082F
:10013000DFF80CD000F0A6FB00480047314D000866
:10014000F81900200648804706480047FEE7FEE70A
:10015000FEE7FEE7FEE7FEE7FEE7FEE7FEE7FEE777
:100160001539000831010008202A04DB203A21FA61
:1001700002F00021704721FA02F3D040C2F12002C0
:100180009140084319467047D2B201E000F8012BB4
:10019000491EFBD270470022F6E710B513460A4607
:1001A00004461946FFF7F0FF204610BD30B505465E
:1001B0002A460B4612F8010B13F8014B08B1A04276
:1001C000F8D01CB1002802D06D1CF1E7284630BDE4
:1001D000421C10F8011B0029FBD1801A704703460E
:1001E00011F8012B00F8012B002AF9D118467047AD
:1001F000F0B480EA0102D40F4200B2EB410F02D208
:100200000246084611464A0042D0C30DDDB2C1F392
:10021000C752AD1A202D35DAC1F3160141F40002A0
:1002200004B15242C5F1200602FA06F12A411044F7
:10023000B3EBD05F23D0C4B1012DA0EBC35009DCD8
:10024000F0BC4FF0004202EAC352DBB200F50000FE
:1002500000F05CBA400000F1807000EBC350A0F1E8
:10026000807040EAD170490009E0490841EAC07154
:10027000A0EBC35000F50000400800EBC350F0BCF9
:1002800000F03BBA6142012202EB4101001BF6E79C
:10029000F0BC704781F00041AAE780F00040A7E77A
:1002A0002DE9FE4F804681EA0300C00F0C46009006
:1002B00021F0004123F00045B8EB0200A94105D22E
:1002C0004046214690461C460B46024623F000401D
:1002D000104347D0270DC7F30A00C3F30A51029019
:1002E000401A019040286BDAC3F3130040F4801BDE
:1002F0000098924620B10023D2EB030A63EB0B0B6C
:1003000001985946C0F14002504600F0D5F9064622
:100310000D4650465946019A00F0DDF910EB0800F1
:100320006141002487EA115284EAE7731A4340D0FE
:10033000009A62B3019A012A4FEA075215DC001BAA
:1003400061EB02014FF0004202EA0752CDE90042A0
:10035000001C41F5801132462B4600F014FA03B020
:10036000BDE8F08F40462146F9E7001B61EB020132
:10037000001C41F5801300185B412018A2F50017FE
:1003800047EB030140EAD570B6196D4111E06D08E5
:100390004FEA360645EAC0754FEA0752001B61EB8B
:1003A0000201001C41F5801149084FEA3000001994
:1003B000514132462B4603B0BDE8F04F00F0D4B9AE
:1003C0000098012240000023D0EB020263EBE073AF
:1003D000009821464FEAE074B8EB000061EB04019D
:1003E000E9E783F000435BE781F0004158E72DE93E
:1003F000FE4F81EA030404F0004421F00041009420
:100400004FF0000B23F0004350EA01045ED052EAA3
:1004100003045BD0C3F30A54C1F30A552C44A4F27D
:10042000F3340194A0FB0254C1F3130141F4801191
:10043000C3F3130343F4801301FB024400FB034E98
:10044000840A970A44EA815447EA8357A4FB076861
:1004500002958D0A05FB07854FEA932C04FB0C548B
:100460002705029D4FEA065847EA1637B5EB0805FF
:100470006EEB070C870E920E47EA811742EA831251
:10048000A7FB0201B6EB0B0164EB00042B0D43EA62
:100490000C335E1844EB1C50DA465146E7FB020170
:1004A000C5F313044FEA0B3343EA14534FEA043203
:1004B000019C43EA0603A4F10C040294009CCDE9DC
:1004C00000B400F060F903B0BDE8F08F00200146F1
:1004D000F9E72DE9F04D81EA030404F0004B21F027
:1004E000004514464FF0000A23F0004150EA05028F
:1004F00020D054EA01021DD0C5F30A570246C5F3C5
:100500001303C1F31300C1F30A5640F4801543F4FA
:100510008013A7EB0608101BD64608F2FD3873EBD4
:10052000050002D308F1010801E092185B41B8F11F
:10053000000F03DA00200146BDE8F08D00204FF4E3
:100540008011064684460EE0171B73EB050705D3A2
:10055000121B63EB050306434CEA010C49084FEA02
:10056000300092185B4150EA0107EDD152EA0300D6
:1005700012D082EA040083EA0501084305D0101B6B
:10058000AB4106D20122002306E000224FF00043D7
:1005900002E06FF0010253101AEB06004CEB085119
:1005A00010EB0A0041EB0B01BDE8F04D00F0DCB8A8
:1005B0000EB540F2334102910021CDE900110A4607
:1005C0000B4600F0E0F803B000BD20F00040C10D84
:1005D000C0F3160040F400007F2901DA00207047C4
:1005E000962903DCC1F19601C840704796398840CE
:1005F000704701F0004330B421F0004150EA01029D
:1006000006D00A0DA2F56072C1F31301002A02DCC4
:1006100030BC00207047440F44EAC104C100E01818
:1006200030BC00EBC25000F068B830B50B46014654
:1006300000202022012409E021FA02F59D4205D381
:1006400003FA02F5491B04FA02F52844151EA2F12B
:100650000102F1DC30BD2DE9F05F05460020924635
:100660009B4688460646814640241BE02846414674
:1006700047462246FFF778FD53465A46C01A914135
:1006800010D311461846224600F016F82D1A67EBD3
:1006900001084F4622460120002100F00DF817EB1B
:1006A00000094E41201EA4F10104DFDC484631461A
:1006B0002A464346BDE8F09F202A04DB203A00FA90
:1006C00002F1002070479140C2F1200320FA03F3A9
:1006D000194390407047202A06DBCB17203A41FA95
:1006E00002F043EAE07306E041FA02F3D040C2F1BF
:1006F000200291400843194670470029A8BF70475F
:10070000401C490008BF20F00100704710B4B0FA47
:1007100080FC00FA0CF050EA010404BF10BC7047E2
:1007200049B1CCF1200421FA04F411FA0CF118BFFC
:10073000012121430843A3EB0C01CB1D4FEA0061CB
:100740004FEA102042BF002010BC704700EBC3509E
:1007500010440029A4BF10BC7047401C490008BFCA
:1007600020F0010010BC704710B5141E73F1000496
:1007700008DA401C41F1000192185B411A4301D193
:1007800020F0010010BD2DE9F04D92469B4611B1BD
:10079000B1FA81F202E0B0FA80F220329046FFF71F
:1007A0008BFF04460F4640EA0A0041EA0B0153461C
:1007B0005A46084313D0114653EA010019D0C8F134
:1007C00040025046FFF7D0FC05460E4650465946BB
:1007D0004246FFF771FF084305D0012004E02046A0
:1007E0003946BDE8F08D0020054346EAE0762C430B
:1007F00037430A986305E40AA0EB08000022FD0ACB
:1008000044EA47540A3002D500200146E9E70105D1
:1008100010196941DDE9084500196941BDE8F04D4D
:10082000A2E7C1F30A52C1F3130140F2FF3341F4CE
:1008300080119A4202DA00200146704740F23343A9
:100840009A42A2F2334202DC5242FFF78DBCFFF71C
:1008500033BF000030B5041E71F1000404DB4FF01B
:100860000044404264EB0101141E73F1000405DBF7
:100870001C464FF00043524263EB0403994208BF09
:10088000904230BD064C074D06E0E06840F00103A1
:1008900094E8070098471034AC42F6D3FFF74CFCBD
:1008A000705600089056000810B5024800F004F990
:1008B00010BD00005000002070B5044600252068DF
:1008C000806800F0010018B32068806820F0010003
:1008D0002168886000F094FF054613E000F090FF67
:1008E000401B02280ED92068806800F0010048B142
:1008F000A06A40F01000A062E06A40F00100E062EF
:10090000012070BD2068806800F001000028E5D15A
:100910000020F6E700BFFEE710B5024800F09AFBA2
:1009200010BD000080000020704772B600BFFEE7D7
:100930007047000038B5024600230020009000BF39
:1009400092F82400012801D1022038BD012082F84C
:10095000240000BF4868072812D21068406B0C7949
:10096000641E04EB84051F24AC40A0430D796D1E6A
:1009700005EB85050C68AC4020431468606327E0F4
:1009800048680D2812D21068006B0C79E41F04EB44
:1009900084051F24AC40A0430D79ED1F05EB8505B0
:1009A0000C68AC4020431468206311E01068C06AF2
:1009B0000C790D3C04EB84051F24AC40A0430D7959
:1009C0000D3D05EB85050C68AC4020431468E062E2
:1009D00008680A2812D31068C0680C780A3C04EB37
:1009E00044050724AC40A0430D780A3D05EB4505BE
:1009F0008C68AC4020431468E0600FE01068006928
:100A00000C7804EB44050724AC40A0430D7805EBBB
:100A100045058C68AC4020431468206108681028A4
:100A200002D00868112827D1174C1068A0421ED1A7
:100A30001068806800F40000F0B91068806840F425
:100A400000001468A0600868102815D10F480068DD
:100A50000F4CB0FBF4F000EB80004000009002E08F
:100A60000098401E009000980028F9D104E0906A98
:100A700040F020009062012300BF002082F8240093
:100A800000BF184661E70000002401400C00002070
:100A900040420F0010B504460548844207D103F0D8
:100AA0006FFF034800F0A2F901200249087010BD51
:100AB000500000201000002070B504462068056832
:100AC0002068466806F0200020282DD105F002009D
:100AD000022829D1A06A00F0100018B9A06A40F4D9
:100AE0000070A0622068806800F46020B0F5602F7C
:100AF00013D1207B88B92068406820F0200021684D
:100B00004860A06A20F48070A062A06A00F480505F
:100B100018B9A06A40F00100A0622046FFF7BAFFB2
:100B20006FF012002168086006F08000802839D13B
:100B300005F00400042835D1A06A00F0100018B9AF
:100B4000A06A40F40050A0622068806800F4E04091
:100B5000B0F5E04F0DD02068406800F48060D0B957
:100B60002068806800F46020B0F5602F13D1207BEE
:100B700088B92068406820F0800021684860A06A39
:100B800020F48050A062A06A00F4807018B9A06AB6
:100B900040F00100A0622046FFF7CAFE6FF00C0093
:100BA0002168086006F0400040280DD105F00100E2
:100BB00050B1A06A40F48030A062204600F0B6F840
:100BC0006FF001002168086070BD00002DE9F04160
:100BD0000446002700250026A84614B90120BDE8D8
:100BE000F081A06810B1207D00B100BFA06A30B9CB
:100BF0000020E06284F82400204600F099F82046A6
:100C0000FFF75AFE0746A06A00F01000002873D1D3
:100C1000002F7ED1A06A20F4885040F00200A0622C
:100C20003F4AD4E90001904208D1E069B0F5402F75
:100C300002D14FF4002002E0E06900E0E0690143E6
:100C4000207B41EA40000643A068B0F5807F02D0D7
:100C5000A068012802D14FF4807000E00020054315
:100C6000207D012811D1207B38B9A069401E4FF4A6
:100C7000006141EA4030054307E0A06A40F02000EF
:100C8000A062E06A40F00100E0622068406820F461
:100C900069402843216848602068806821490840ED
:100CA000304321688860A068B0F5807F02D0A068DA
:100CB000012802D14FF4807000E00020B0F5807F61
:100CC00003D1208A401E4FEA00582068C06A20F4F1
:100CD000700040EA08002168C862206880681249F4
:100CE0000840B04209D10020E062A06A20F0020072
:100CF00040F00100A06211E00BE0A06A20F00200C9
:100D000040F01000A062E06A40F00100E0620127BC
:100D100004E0A06A40F01000A062012738465EE7B8
:100D2000003C0140FDF7E1FFFE0E1FFF7047000091
:100D300010B586B004460020029003900490059000
:100D400025492068884245D100BF2448806940F485
:100D50000070224988610846806900F400700190A3
:100D600000BF00BF00BF0846806940F004008861F2
:100D70000846806900F00400019000BF00BF7020A9
:100D800002900320039002A9154800F089FB154842
:100D900015490860002048600021134881608021C7
:100DA000C160890001618900416100218161C161E7
:100DB00000F01CFB08B1FFF7B8FD00BF0A48206235
:100DC000446200BF00220721122000F0C1FE122061
:100DD00000F0AEFE06B010BD00240140001002403D
:100DE00000080140080002408000002070B5044661
:100DF000002500BF94F82400012801D1022070BD15
:100E0000012084F8240000BF2046FFF755FD054669
:100E1000D5B92068806820F4807021688860206AD5
:100E200090F8210002280FD1206A00F014F805463E
:100E300035B9A06A20F4885040F00100A06203E0B8
:100E4000A06A40F04000A06200BF002084F82400A7
:100E500000BF2846D3E70146002291F8210002286E
:100E600008D00420886300BF002081F8200000BF64
:100E7000012070470868006820F00E000B681860B9
:100E80000868006820F001000B68186091F8403095
:100E900001209840CB6B5860012081F8210000BFF1
:100EA000002081F8200000BF1046E2E770B504463C
:100EB000002594F82100022803D00420A063012516
:100EC000C1E02068006820F00E00216808602068FA
:100ED000006820F00100216808605C4920688842B1
:100EE00052D95A4978392068884201D1012047E017
:100EF000564964392068884201D1102040E05349A6
:100F000050392068884201D1801539E04F493C3979
:100F10002068884201D1801432E04C492839206889
:100F2000884202D14FF480302AE0484914392068C1
:100F3000884202D14FF4801022E044492068884260
:100F400001D140041CE042492068884201D10120BF
:100F500016E03F4914312068884201D110200FE08B
:100F60003B4928312068884201D1801508E0384982
:100F70003C312068884201D1801401E04FF4803078
:100F80003349091F086051E03049783920688842A8
:100F900001D1012047E02D4964392068884201D100
:100FA000102040E0294950392068884201D180153D
:100FB00039E026493C392068884201D1801432E06A
:100FC000224928392068884202D14FF480302AE033
:100FD0001E4914392068884202D14FF4801022E063
:100FE0001A492068884201D140041CE01849206851
:100FF000884201D1012016E0154914312068884249
:1010000001D110200FE0124928312068884201D117
:10101000801508E00E493C312068884201D18014D7
:1010200001E04FF48030094980394860012084F89C
:10103000210000BF002084F8200000BF606B10B1C9
:101040002046616B8847284670BD00008000024042
:101050000804024070B50446E06B05682068066825
:1010600094F84010042088402840002875D006F0ED
:1010700004000028FAD02068006800F0200028B999
:101080002068006820F0040021680860D5492068C5
:10109000884254D9D34978392068884201D1042044
:1010A00049E0D04964392068884201D1402042E0BB
:1010B000CC4950392068884201D100153BE0C9492C
:1010C0003C392068884202D14FF4804033E0C54962
:1010D00028392068884202D14FF480202BE0C14992
:1010E00014392068884202D14FF4800023E0BD49C2
:1010F0002068884201D1C0041DE0BB4920688842B5
:1011000001D1042017E0B84914312068884201D188
:10111000402010E0B44928312068884201D10015F0
:1011200009E0B1493C312068884202D14FF4804047
:1011300001E04FF48020AC49091F086054E0A94940
:1011400078392068884201D104204AE0A5496439F1
:101150002068884202D1402043E04CE0A149503948
:101160002068884201D100153BE09E493C39206847
:10117000884202D14FF4804033E09A4928392068F0
:10118000884202D14FF480202BE096491439206820
:10119000884202D14FF4800023E0924920688842BF
:1011A00001D1C0041DE090492068884201D104208B
:1011B00017E08D4914312068884201D1402010E0A9
:1011C000894928312068884201D1001509E0864903
:1011D0003C312068884202D14FF4804001E04FF456
:1011E0008020804980394860E06A002802D020468B
:1011F000E16A8847F4E094F84010022088402840D3
:10120000002871D006F002000028FAD0206800689B
:1012100000F0200040B92068006820F00A00216832
:101220000860012084F821006E492068884254D962
:101230006C4978392068884201D1022049E0694927
:1012400064392068884201D1202042E06549503944
:101250002068884201D140153BE062493C39206852
:10126000884202D14FF4005033E05E4928392068AB
:10127000884202D14FF400302BE05A4914392068DB
:10128000884202D14FF4001023E05649206888427A
:1012900001D180041DE054492068884201D1022018
:1012A00017E0514914312068884201D1202010E014
:1012B0004D4928312068884201D1401509E04A494A
:1012C0003C312068884202D14FF4005001E04FF4D5
:1012D00000304549091F086054E0424978392068C8
:1012E000884202D102204AE057E03E496439206832
:1012F000884201D1202042E03A4950392068884292
:1013000001D140153BE037493C392068884202D181
:101310004FF4005033E0334928392068884202D125
:101320004FF400302BE02F4914392068884202D155
:101330004FF4001023E02B492068884201D180043B
:101340001DE029492068884201D1022017E0264982
:1013500014312068884201D1202010E02249283130
:101360002068884201D1401509E01F493C312068BE
:10137000884202D14FF4005001E04FF40030194987
:101380008039486000BF002084F8200000BFA06AB8
:1013900030B32046A16A884722E094F84010082024
:1013A00088402840E0B106F00800C8B12068006815
:1013B00020F00E002168086094F840100120884059
:1013C000E16B48600120A06384F8210000BF002089
:1013D00084F8200000BF206B10B12046216B8847A5
:1013E00070BD000080000240080402400146002257
:1013F00009B9012070471E4B086898420BD21D4B5B
:101400000868C01A1423B0FBF3F080000864194880
:101410000838C8630AE0164B0868C01A1423B0FBEA
:10142000F3F08000086412480838C863022081F88D
:1014300021000868026843F6F0708243D1E9010395
:101440001843CB6818430B6918434B6918438B69E1
:101450001843CB6918430243086802600020886380
:10146000012081F82100002081F8200000BFC1E7A1
:10147000080402400800024070B5044600F0C0F9BC
:1014800006462546681C10B104480078054400BF94
:1014900000F0B6F9801BA842FAD370BD0800002006
:1014A0002DE9F847024600239C467BE14FF00108F6
:1014B00008FA03F4D1F8008008EA0400A0427DD1C4
:1014C000DFF8F4A2D1F80480A8EB0A09D0453AD09D
:1014D00014DCB8F1030F50D009DCB8F1000F31D0A3
:1014E000B8F1010F1CD0B8F1020F49D120E0B8F1DA
:1014F000110F18D0B8F1120F42D11EE0B9F5881FB4
:1015000025D006DCB9F5803F20D0B9F5801F37D152
:101510001AE0B9F5001F18D0B9F5041F30D117E053
:10152000D1F80CC02DE0D1F80C8008F1040C28E0B3
:10153000D1F80C8008F1080C23E0D1F80C8008F1F8
:101540000C0C1EE000BF00BF00BF00BF00BF00BF0B
:10155000D1F80880B8F1000F02D14FF0040C0BE075
:10156000D1F80880B8F1010F03D14FF0080C1461D5
:1015700002E04FF0080C546103E04FF0000C00E073
:1015800000BF00BFFF2801D8904601E002F1040827
:101590004646FF2802D84FEA830803E0A3F1080873
:1015A0004FEA88084746D6F800804FF00F0909FA3D
:1015B00007F928EA09080CFA07F900E07AE048EA96
:1015C0000908C6F80080D1F8048008F08058B8F106
:1015D000805F6FD100BFDFF8E481D8F8188048F051
:1015E0000108DFF8D891C9F81880C846D8F81880E3
:1015F00008F00108CDF8008000BF00BF4FEAB938FD
:101600004FEA930958F829504FEA83784FEA18793E
:101610004FF00F0808FA09F825EA0805DFF8A0815D
:10162000424502D14FF0000824E0DFF8988142459E
:1016300002D14FF001081DE0DFF88C81424502D154
:101640004FF0020816E0DFF88481424502D14FF0E6
:1016500003080FE0DFF87881424502D14FF004081B
:1016600008E0DFF87081424502D14FF0050801E043
:101670004FF006084FEA83794FEA197908FA09F81A
:1016800048EA0505DFF850814FEA930948F82950E8
:10169000D1F8048008F48018B8F5801F0BD1DFF86A
:1016A0003C81D8F8008048EA0008DFF83091C9F89A
:1016B00000800AE075E0DFF82481D8F8008028EA8D
:1016C0000008DFF81891C9F80080D1F8048008F408
:1016D0000018B8F5001F0ED1DFF8008108F10408EA
:1016E000D8F8008048EA0008DFF8F09009F1040912
:1016F000C9F800800DE0DFF8E48008F10408D8F8AC
:10170000008028EA0008DFF8D49009F10409C9F83C
:101710000080D1F8048008F40038B8F5003F0ED1FD
:10172000DFF8B880A8F10408D8F8008048EA00087B
:10173000DFF8A890A9F10409C9F800800DE0DFF8EE
:101740009C80A8F10408D8F8008028EA0008DFF897
:101750008C90A9F10409C9F80080D1F8048008F43C
:101760008038B8F5803F0ED1DFF87080A8F1080806
:10177000D8F8008048EA0008DFF86090A9F108096D
:10178000C9F800800DE0DFF85480A8F10808D8F807
:10179000008028EA0008DFF84490A9F10809C9F898
:1017A00000805B1CD1F8008028FA03F8B8F1000F24
:1017B0007FF47CAEBDE8F8870000111000100240F5
:1017C00000080140000C01400010014000140140DD
:1017D00000180140001C01400800014008040140BD
:1017E00010B5C26821EA020302EA010443EA044395
:1017F000036110BD0AB1016101E00B040361704790
:1018000001480068704700000000002070B50446E1
:101810000CB9012070BD94F83D0028B9002084F86F
:101820003C00204600F0DAF8242084F83D002068CF
:10183000006820F00100216808602068006840F41A
:101840000040216808602068006820F4004021689A
:10185000086000F033FB05465C496068884206D8A2
:101860005B48854201D2012007E0002005E059488D
:10187000854201D2012000E00020012800D1C9E703
:101880005548B5FBF0F62068406820F03F00304333
:10189000216848604D496068884201D8701C07E0A3
:1018A0004FF4967070434FF47A71B0FBF1F0401C26
:1018B0002168096A21F03F01084321680862434911
:1018C0006068884214D8681E61684900B0FBF1F076
:1018D000401CC0F30B00042801D204203DE0681E28
:1018E00061684900B0FBF1F0401CC0F30B0034E02C
:1018F000A06838B9681E616801EB4101B0FBF1F0E6
:10190000401C0AE0681E616801EBC10202EB011194
:10191000B0FBF1F0401C40F48040C0F30B0008B96C
:1019200001201AE0A06848B9681E616801EB410116
:10193000B0FBF1F0401CC0F30B000CE0681E6168C6
:1019400001EBC10202EB0111B0FBF1F0401CC0F34E
:101950000B0040F4804040F400402168C9694CF617
:10196000FF72914308432168C861D4E90701084325
:101970002168096821F0C001084321680860D4E9A2
:10198000031008432168896848F2FF3291430843F5
:1019900021688860D4E9050108432168C96821F0FD
:1019A000FF0108432168C8602068006840F001001A
:1019B0002168086000202064202084F83D00002079
:1019C000206384F83E0000BF24E70000A0860100E9
:1019D00080841E0000093D0040420F0010B586B013
:1019E0000446002002900390049005901549206859
:1019F000884225D100BF1448806940F00800124990
:101A000088610846806900F00800019000BF00BFAF
:101A1000C0200290122003900320059002A90B48D9
:101A2000FFF73EFD00BF0848C06940F400100649BA
:101A3000C8610846C06900F40010019000BF00BFF3
:101A400006B010BD0054004000100240000C0140E0
:101A50000348006803490978084401490860704751
:101A6000000000200800002010B50848006840F081
:101A7000100006490860032000F0A8F80F2000F0CD
:101A800007F800F02BF8002010BD000000200240F5
:101A900070B504460E4800784FF47A71B1FBF0F04F
:101AA0000C490968B1FBF0F5284600F091FC08B13B
:101AB000012070BD102C07D200222146501E00F0DC
:101AC00047F80548046001E00120F2E70020F0E754
:101AD000080000200C0000200400002008B500BF12
:101AE0001148806940F001000F498861084680690B
:101AF00000F00100009000BF00BF00BF0846C069B1
:101B000040F08050C8610846C06900F080500090E5
:101B100000BF00BF00BF0549486820F0E06040F00A
:101B20000070486000BF08BD001002400000014086
:101B300001460846002809DB00F01F0301229A40F5
:101B400043099B0003F1E023C3F8002100BF704765
:101B50002DE9F05F80460D461646002702F086FA12
:101B6000074639462A46334601F00700C0F1070A06
:101B7000BAF1040F02D94FF0040A01E0C0F1070ADC
:101B8000D14600F1040ABAF1070F02D24FF0000A61
:101B900001E0A0F1030AD4464FF0010A0AFA09FA5B
:101BA000AAF1010A0AEA020A0AFA0CFA4FF0010B3A
:101BB0000BFA0CFBABF1010B0BEA030B4AEA0B042B
:101BC0002146404602F05AFABDE8F09F00BF00F0FF
:101BD0000702064B19684FF6FF031940044B0B43ED
:101BE00043EA0221014B196000BF70470CED00E091
:101BF0000000FA05F8B5044600260025207800F01C
:101C0000010000286BD000274348C06900F08050D5
:101C100070B900BF4048C06940F080503E49C8617B
:101C20000846C06900F08050009000BF00BF012747
:101C30003A48006800F48070B0B93848006840F451
:101C4000807036490860FFF7DBFD064606E0FFF7C7
:101C5000D7FD801B642801D90320F8BD2F480068F8
:101C600000F480700028F2D02B48006A00F4407520
:101C70002DB3A08800F44070A84220D02648006A06
:101C800020F44075012026490860002008602248A1
:101C9000056205F0010090B1FFF7B2FD064608E0CD
:101CA000FFF7AEFD801B41F28831884201D9032045
:101CB000D3E71948006A00F002000028F0D0164867
:101CC000006A20F440706168084313490862012FDC
:101CD00004D10846C06920F08050C86100BF207858
:101CE00000F00200022807D10B48406820F4404071
:101CF000A168084308494860207800F010001028C7
:101D000007D10548406820F4800061690843024912
:101D100048600020A1E70000001002400070004071
:101D20004004424270B504460D460CB9012070BD16
:101D30005A48006800F00700A8420ED257480068D1
:101D400020F007002843554908600846006800F065
:101D50000700A84201D00120E9E7207800F0020046
:101D600002281DD1207800F00400042805D14C4839
:101D7000406840F4E0604A494860207800F008007C
:101D8000082805D14648406840F4605044494860FE
:101D90004348406820F0F000A1680843404948608B
:101DA000207800F0010078B36068012806D13C4833
:101DB000006800F4003090B90120B8E7606802289C
:101DC00006D13748006800F0007040B90120AEE746
:101DD0003348006800F0020008B90120A7E7304846
:101DE000406820F00300616808432D494860FFF710
:101DF00007FD064609E0FFF703FD801B41F288312D
:101E0000884202D9032092E707E02548406800F0A5
:101E10000C006168B0EB810FEDD12048006800F044
:101E20000700A8420ED91D48006820F0070028438B
:101E30001A4908600846006800F00700A84201D06F
:101E4000012074E7207800F00400042807D114482A
:101E5000406820F4E060E168084311494860207858
:101E600000F00800082808D10D48406820F46050B0
:101E7000216940EAC1000A49486000F03FF808497A
:101E80004968C1F30311074A515CC840064908601C
:101E900006480068FFF7FCFD002048E700200240EC
:101EA00000100240F25100080C0000200400002045
:101EB00001480068704700000C00002000B5FFF7E3
:101EC000F7FF04494968C1F30221034A515CC84045
:101ED00000BD0000001002400252000800B5FFF7EC
:101EE000E7FF04494968C1F3C221034A515CC84075
:101EF00000BD0000001002400252000870B5002131
:101F00000022002400230020134D696801F00C0515
:101F1000F5B1042D02D0082D19D101E00F4819E0C8
:101F20000F4DC1F38346AB5D01F4803555B10A4DC9
:101F30006D68C5F340450B4E725D084D5D43B5FBC2
:101F4000F2F402E0084D03FB05F4204602E000BF76
:101F5000024800BF00BF70BD0010024000127A00AE
:101F6000E0510008F051000800093D00F8B50446B2
:101F70000CB90120F8BD207800F00100002878D0CD
:101F8000F848406800F00C0004280CD0F548406880
:101F900000F00C00082811D1F248406800F48030AD
:101FA000B0F5803F0AD1EF48006800F40030002807
:101FB0005FD0606800285CD10120DBE700BF60686B
:101FC000B0F5803F06D1E748006840F48030E5492D
:101FD000086028E0606858B9E248006820F4803062
:101FE000E04908600846006820F4802008601AE094
:101FF0006068B0F5A02F0BD1DA48006840F480206B
:10200000D84908600846006840F4803008600AE05B
:10201000D448006820F48030D2490860084600683F
:1020200020F48020086000BF606888B1FFF7E8FBFB
:10203000054606E0FFF7E4FB401B642801D90320B6
:1020400098E7C848006800F400300028F2D010E09B
:10205000FFF7D6FB054606E0FFF7D2FB401B6428DE
:1020600001D9032086E7BF48006800F4003000284B
:10207000F2D1207800F00200022857D1B948406818
:1020800000F00C0050B1B748406800F00C00082880
:1020900018D1B448406800F4803098B9B14800685D
:1020A00000F0020020B12069012801D0012061E781
:1020B000AC48006820F0F800616940EAC100A94915
:1020C000086033E02069E8B10120A7490860FFF704
:1020D00097FB054606E0FFF793FB401B022801D95A
:1020E000032047E79F48006800F002000028F2D074
:1020F0009C48006820F0F800616940EAC1009949F5
:10210000086013E0002098490860FFF779FB054656
:1021100006E0FFF775FB401B022801D9032029E7E1
:102120009048006800F002000028F2D1207800F00A
:10213000080008282DD1A069B8B101208B4908609A
:10214000FFF75EFB054606E0FFF75AFB401B02283F
:1021500001D903200EE78348406A00F002000028FE
:10216000F2D0012001F07CFB13E000207F490860E1
:10217000FFF746FB054606E0FFF742FB401B02283F
:1021800001D90320F6E67748406A00F002000028F3
:10219000F2D1207800F00400042873D100277148A0
:1021A000C06900F0805070B900BF6E48C06940F04F
:1021B00080506C49C8610846C06900F080500090AA
:1021C00000BF00BF01276A48006800F48070B0B902
:1021D0006748006840F4807065490860FFF710FBAD
:1021E000054606E0FFF70CFB401B642801D90320DD
:1021F000C0E65F48006800F480700028F2D000BF9D
:10220000E068012806D15748006A40F001005549AE
:10221000086227E0E06858B95248006A20F00100DF
:10222000504908620846006A20F00400086219E07C
:10223000E06805280BD14B48006A40F0040049498A
:1022400008620846006A40F0010008620AE045485A
:10225000006A20F00100434908620846006A20F045
:102260000400086200BFE068A0B1FFF7C9FA0546A4
:1022700009E0FFF7C5FA401B41F28831884202D9D4
:10228000032077E622E03748006A00F002000028C9
:10229000EFD012E0FFF7B4FA054608E0FFF7B0FA16
:1022A000401B41F28831884201D9032062E62D4863
:1022B000006A00F002000028F0D1012F05D1294862
:1022C000C06920F080502749C86100BFE069C8B3E9
:1022D0002448406800F00C00082860D0E06902281B
:1022E00048D1002020490866FFF78AFA054606E033
:1022F000FFF786FA401B022801D903203AE6194865
:10230000006800F000700028F2D1206AB0F5803F2C
:1023100007D11448406820F40030A16808431149EF
:102320004860D4E9080108430E49496821F4741152
:1023300008430C49486001200B490866FFF760FA22
:10234000054607E03DE0FFF75BFA401B022801D994
:1023500003200FE60348006800F000700028F2D068
:102360002FE0000000100240000042428004424280
:1023700000700040002014490866FFF741FA054646
:1023800006E0FFF73DFA401B022801D90320F1E5E2
:102390000E48006800F000700028F2D111E0E069FA
:1023A000012800D1E6E50948466806F48031206A34
:1023B000814204D106F47011606A814201D001208B
:1023C000D8E50020D6E5000000004242001002409F
:1023D00070B504462546681EB0F1807F01D3012008
:1023E0000FE0681E4FF0E02148610F214FF0FF30F1
:1023F00001F044FE00204FF0E021886107200861D1
:10240000002070BD7047704710B50346002200BF22
:1024100093F83C00012801D1022010BD012083F86F
:102420003C0000BF22F0FF00CC6840EA040222F426
:1024300040708C6840EA040222F480604C6840EAF4
:10244000040222F400600C6840EA040222F4805086
:102450000C6940EA040222F400504C6940EA04028C
:1024600022F48040CC6940EA04021868426400BF4C
:10247000002083F83C0000BF00BFCEE730B5024625
:102480000B4600BF92F83C00012801D1022030BD6C
:10249000012082F83C0000BF022082F83D00106855
:1024A00044681068816824F0700418680443106858
:1024B0004460144D1068A84213D0134D1068A84210
:1024C0000FD01068B0F1804F0BD0104D1068A842AB
:1024D00007D00F4D1068A84203D00E4D1068A842D7
:1024E00005D121F080015868014310688160012006
:1024F00082F83D0000BF002082F83C0000BF00BF12
:10250000C5E70000002C01400034014000040040F9
:1025100000080040000C004010B504460CB9012032
:1025200010BD94F83D0028B9002084F83C002046F6
:1025300000F026F8022084F83D00211D206801F0FB
:10254000FBF9012084F8460000BF84F83E00012119
:102550003F200155402001554120015500BF00BFDB
:10256000012084F8420043200155442001554520B4
:10257000015500BF012084F83D000020D0E7000095
:1025800038B504462C49206888420DD100BF2B483D
:10259000806940F40060294988610846806900F438
:1025A0000060009000BF46E02068B0F1804F0DD180
:1025B00000BF2248C06940F001002049C8610846B8
:1025C000C06900F00100009000BF34E01C492068A1
:1025D000884216D100BF1948C06940F0020017496F
:1025E000C8610846C06900F00200009000BF00BF4B
:1025F000002208211D20FFF7ABFA1D20FFF798FAF3
:1026000019E010492068884215D100BF0B48C06905
:1026100040F020000949C8610846C06900F0200068
:10262000009000BF00BF00220B213720FFF790FA77
:102630003720FFF77DFA38BD002C01400010024022
:102640000004004000140040014691F83D000128BC
:1026500001D001207047022081F83D000868C06861
:1026600040F001000B68D860164B0868984213D000
:10267000154B086898420FD00868B0F1804F0BD016
:10268000124B0868984207D0114B0868984203D053
:10269000104B086898420CD10868806800F0070267
:1026A000062A0CD00868006840F001000B6818602A
:1026B00005E00868006840F001000B681860002021
:1026C000C8E70000002C0140003401400004004035
:1026D00000080040000C00402DE9F04104460D4682
:1026E000002700BF94F83C00012802D10220BDE879
:1026F000F081012084F83C0000BF022084F83D00F6
:102700002068866826F0770626F47F462068866073
:102710002868502833D00CDC202850D004DC002856
:102720004BD0102851D149E0302849D040284CD115
:1027300039E060282DD0702807D0B0F5805F03D035
:10274000B0F5005F41D10DE041E0D5E902136A68C0
:10275000206801F03FF92068866846F07706206817
:10276000866034E0D5E902136A68206801F032F926
:102770002068806840F480402168886027E0EA682B
:102780006968206801F016FA5021206801F02DF9DF
:102790001DE0EA686968206801F01FFA602120687E
:1027A00001F023F913E0EA686968206801F002FA91
:1027B0004021206801F019F909E000BF00BF00BF07
:1027C0002968206801F011F901E0012700BF00BF6E
:1027D000012084F83D0000BF002084F83C0000BFC9
:1027E000384684E7704710B5044620680069C0F396
:1027F0004000D8B12068C068C0F34000B0B16FF0AD
:10280000020021680861012020772068806900F0BB
:10281000030018B12046FFF7E5FF05E0204600F071
:1028200003F9204600F0B7F90020207720680069FE
:10283000C0F38000D8B12068C068C0F38000B0B198
:102840006FF0040021680861022020772068806909
:1028500000F4407018B12046FFF7C4FF05E02046A1
:1028600000F0E2F8204600F096F90020207720687A
:102870000069C0F3C000D8B12068C068C0F3C000D0
:10288000B0B16FF00800216808610420207720684B
:10289000C06900F0030018B12046FFF7A3FF05E070
:1028A000204600F0C1F8204600F075F9002020779E
:1028B00020680069C0F30010D8B12068C068C0F378
:1028C0000010B0B16FF01000216808610820207777
:1028D0002068C06900F4407018B12046FFF782FFFD
:1028E00005E0204600F0A0F8204600F054F9002052
:1028F00020772068006900F0010058B12068C068A6
:1029000000F0010030B16FF001002168086120463D
:1029100000F042F920680069C0F3C01058B1206887
:10292000C068C0F3C01030B16FF08000216808614A
:102930002046FFF767FD20680069C0F3801058B19A
:102940002068C068C0F3801030B16FF0400021688B
:102950000861204600F02CF920680069C0F340109F
:1029600058B12068C068C0F3401030B16FF020004B
:10297000216808612046FFF746FD10BD10B586B0FE
:10298000044600200290039004900590214920689D
:10299000884217D100BF2048806940F004001E49DA
:1029A00088610846806900F00400019000BF00BF04
:1029B000C814029002200390059002A91748FEF760
:1029C0006FFD25E02068B0F1804F21D100BF124893
:1029D000806940F00800104988610846806900F06D
:1029E0000800019000BF00BF082002900220039061
:1029F000059002A90A48FEF753FD00BF094948683F
:102A000020F4407040F0E06040F48070486000BF07
:102A100006B010BD002C014000100240000801402B
:102A2000000C01400000014070472DE9F0410446D0
:102A30000D461646002700BF94F83C00012802D13D
:102A40000220BDE8F081012084F83C0000BF36B1CF
:102A5000042E1BD0082E31D00C2E5ED145E0294625
:102A6000206800F0CBFF2068806940F008002168F2
:102A700088612068806920F00400216888612068EE
:102A80008069296908432168886148E029462068EF
:102A900000F0ECFF2068806940F4006021688861E4
:102AA0002068806920F480602168886120688069DE
:102AB000296940EA01202168886130E029462068C0
:102AC00001F012F82068C06940F008002168C86170
:102AD0002068C06920F004002168C8612068C069CE
:102AE000296908432168C86119E02946206801F076
:102AF00037F82068C06940F400602168C861206828
:102B0000C06920F480602168C8612068C0692969B3
:102B100040EA01202168C86101E0012700BF00BF31
:102B200000BF002084F83C0000BF384689E710B59C
:102B300004460CB9012010BD94F83D0028B90020CE
:102B400084F83C00204600F025F8022084F83D007F
:102B5000211D206800F0F0FE012084F8460000BF2F
:102B600084F83E0001213F200155402001554120BD
:102B7000015500BF00BF012084F8420043200155E9
:102B8000442001554520015500BF012084F83D0037
:102B90000020D0E77047704710B50446034920680D
:102BA0000968884201D102F00BFB10BDF001002042
:102BB00070477047704700002DE9F84F04462068C1
:102BC00005682068C668206847694FF00009CA4652
:102BD00005F00F09B9F1000F0AD105F0200038B156
:102BE00006F0200020B1204601F06CF8BDE8F88F17
:102BF000B9F1000F7BD007F0010018B906F490700E
:102C0000002874D005F0010030B106F4807018B1CE
:102C1000606C40F00100606405F0040030B107F022
:102C2000010018B1606C40F00200606405F0020021
:102C300030B107F0010018B1606C40F0040060642E
:102C400005F0080048B106F0200010B907F00100B7
:102C500018B1606C40F008006064606C002845D0DA
:102C600005F0200028B106F0200010B1204601F048
:102C700029F820684069C0F3801A606C00F00800F1
:102C800010B9BAF1000F2CD0204600F0D5FF206813
:102C9000406900F0400000B300BF00BF216814315C
:102CA00051E8001F21F040002168143141E8000282
:102CB000002AF3D100BFE06B50B17748E16B486365
:102CC000E06BFEF7F3F888B1E06B416B88470DE0ED
:102CD0002046FFF76FFF09E009E02046FFF76AFF93
:102CE00004E02046FFF766FF002060647EE7206B6B
:102CF000012877D105F01000002873D006F01000ED
:102D00000028FAD000BF00200090206800680090E2
:102D100020684068009000BF00BF2068406900F054
:102D2000400000285FD0E06B006840681FFA80F820
:102D3000B8F1000F55D0A08D404552DDA4F82E808B
:102D4000E06B8069202843D000BF00BF21680C31B0
:102D500051E8001F21F4807021680C3141E8000225
:102D6000002AF3D100BF00BF00BF2168143151E831
:102D7000001F21F001002168143141E80002002AFF
:102D8000F3D100BF00BF00BF2168143151E8001F1C
:102D900021F040002168143141E80002002AF3D1FB
:102DA00000BF202084F842000020206300BF00BF45
:102DB00021680C3151E8001F21F0100021680C310E
:102DC00041E80002002AF3D100BFE06BFEF743F8B0
:102DD00002206063A08DE28D801A81B22046FFF749
:102DE000E8FE03E742E0A08DE18D401A1FFA80F86B
:102DF000E08DD0B3B8F1000F37D000BF00BF21681D
:102E00000C3151E8001F21F4907021680C3141E829
:102E10000002002AF3D100BF00BF00BF21681431B7
:102E200051E8001F21F001002168143141E800023F
:102E3000002AF3D100BF202084F842000020206344
:102E400000BF00BF21680C3151E8001F21F01000C5
:102E500021680C3141E80002002AF3D100BF0220B2
:102E6000606341462046FFF7A4FEBFE605F0800000
:102E700030B106F0800018B1204601F03FF8B5E609
:102E800005F0400030B106F0400018B1204600F0D7
:102E900009FFABE600BFA9E6253C000810B50446D3
:102EA0000CB9012010BDA06900B100E000BF94F88A
:102EB000410028B9002084F84000204600F02AF89C
:102EC000242084F841002068C06820F40050216864
:102ED000C860204600F074FF2068006920F490402C
:102EE000216808612068406920F02A002168486153
:102EF0002068C06840F400502168C8600020606409
:102F0000202084F8410084F842000020606300BF64
:102F1000C8E7000010B586B0044600200290039078
:102F2000049005909B492068884237D100BF9A4899
:102F3000C06940F400209849C8610846C06900F49F
:102F40000020019000BF00BF00BF0846806940F02C
:102F5000100088610846806900F01000019000BFF1
:102F600000BF08150290022003900320059002A9DB
:102F70008A48FEF795FA4FF4006002900020039013
:102F8000049002A98548FEF78BFA0022082134201C
:102F9000FEF7DEFD3420FEF7CBFDF9E08049206826
:102FA000884243D100BF7C48C06940F480107A4910
:102FB000C8610846C06900F48010019000BF00BFDE
:102FC00000BF0846806940F01000886108468069AB
:102FD00000F01000019000BF00BF00BF08468069EC
:102FE00040F0200088610846806900F020000190D0
:102FF00000BF00BF881402900220039003200590B8
:1030000002A96648FEF74CFA0420029000200390C3
:10301000049002A96348FEF743FA002208213520F4
:10302000FEF796FD3520FEF783FDB1E05E4920688E
:10303000884237D100BF5848806940F480405649E3
:1030400088610846806900F48040019000BF00BF9D
:1030500000BF0846806940F0040088610846806926
:1030600000F00400019000BF00BF4815029002204C
:1030700003900320059002A94C48FEF711FA4FF483
:103080008060029000200390049002A94748FEF758
:1030900007FA002208212520FEF75AFD2520FEF719
:1030A00047FD75E042492068884236D100BF3A4862
:1030B000C06940F400303849C8610846C06900F46E
:1030C0000030019000BF00BF00BF0846806940F09B
:1030D000040088610846806900F00400019000BF88
:1030E00000BF04200290022003900320059002A953
:1030F0002E48FEF7D5F90820029000200390049096
:1031000002A92A48FEF7CCF9002208212620FEF762
:103110001FFD2620FEF70CFD3AE026492068884274
:1031200036D100BF1C48C06940F480201A49C861EC
:103130000846C06900F48020019000BF00BF00BFB6
:103140000846806940F0080088610846806900F000
:103150000800019000BF00BF0815029002200390F4
:103160000320059002A91448FEF79AF94FF4006075
:10317000029000200390049002A90F48FEF790F9F6
:10318000002208212720FEF7E3FC2720FEF7D0FCD1
:1031900006B010BD004C004000100240001001407D
:1031A0000050004000140140003801400008014078
:1031B0000044004000480040000C014070B5044647
:1031C0000D46164694F8420020280BD105B10EB9E1
:1031D000012070BD0020206332462946204600F0C1
:1031E0006DFEF6E70220F4E770B50546284601F0CB
:1031F00023FD044604EB84101B4911F8300001281C
:1032000031D104EB841001EBC000B0F8046204EB90
:10321000841001EBC00090F8061204EB8410124AEF
:1032200002EBC000C01C815504EB8410114601EB79
:10323000C000B0F80402401C04EB841102EBC10191
:10324000A1F80402022004EB841102EBC1014870D2
:1032500004EB841002EBC00000F206210122284694
:10326000FFF7ACFF00BF70BDA00300202DE9F84FB1
:1032700004460E46174699464FF0000A94F841005E
:1032800020284AD106B117B90120BDE8F88F0020E7
:103290006064212084F84100FEF7B2FA8246A784D8
:1032A000E784A068B0F5805F04D1206910B90025DB
:1032B000B04602E035464FF000081BE053460022BE
:1032C00080212046CDF8009000F048FE08B1032090
:1032D000DBE745B9B8F80000C0F308002168486092
:1032E00008F1020803E02878216848606D1CE08C32
:1032F000401EE084E08C0028E0D1534600224021AB
:103300002046CDF8009000F029FE08B10320BCE76C
:10331000202084F841000020B7E70220B5E770477D
:1033200000BFFEE70EB500200090019002901E48FD
:103330001E49086081151D4881600121017300212B
:1033400001754FF46021C1610020184948600321D4
:1033500016480161FDF73AFC08B1FDF7E6FA0420D2
:103360000090012001900520029069460F48FDF76A
:10337000E1FA08B1FDF7D9FA05200090022001908A
:1033800069460A48FDF7D6FA08B1FDF7CEFA0620DD
:1033900000900320019069460448FDF7CBFA08B17C
:1033A000FDF7C3FA0EBD00000024014050000020CC
:1033B00008B500BF0A48406940F00100084948616B
:1033C0000846406900F00100009000BF00BF0022E5
:1033D00011460B20FEF7BCFB0B20FEF7A9FB08BD36
:1033E0000010024000B585B00020019002900390CB
:1033F000049000BF3048806940F010002E49886179
:103400000846806900F01000009000BF00BF00BFB8
:103410000846806940F0200088610846806900F015
:103420002000009000BF00BF00BF0846806940F048
:10343000040088610846806900F00400009000BF25
:1034400000BF00BF0846806940F008008861084658
:10345000806900F00800009000BF00BF002240F229
:1034600033211648FEF7C6F9012204211348FEF75E
:10347000C1F94FF46040019000200290039001A92F
:103480000F48FEF70DF88020019000200290039075
:1034900001A90C48FEF704F840F237200190012002
:1034A0000290002003900220049001A90348FDF738
:1034B000F7FF05B000BD000000100240000C014005
:1034C000001001400008014010B50B480B4908608E
:1034D0000B484860002109488160C1604FF4804179
:1034E0000161002141618161C1610162FEF78EF9D4
:1034F00008B1FDF71AFA10BD00540040C4000020C6
:10350000801A060000B595B000201190129013901B
:1035100014900F9010901C2108A8FCF73CFE20216D
:103520006846FCF738FE2B482B49086005204860A8
:103530000021294881604FF6FF71C16000210161BF
:10354000416180218161FEF7E7FF08B1FDF7EDF9E8
:103550004FF48050119011A91F48FFF7BDF808B132
:10356000FDF7E3F91C48FFF7E2FA08B1FDF7DDF9D2
:1035700000200F9010900FA91748FEF77FFF08B1A9
:10358000FDF7D3F960200890002009900A900C9074
:103590000D900E900C2208A90F48FFF746FA08B1CB
:1035A000FDF7C3F900200090019002900390049071
:1035B0004FF4005005900020079069460648FEF73A
:1035C00023FF08B1FDF7B1F90348FFF7D7F915B0AC
:1035D00000BD0000002C01401801002000B58DB096
:1035E000002009900A900B900C90079008901C21E5
:1035F0006846FCF7D0FD4FF080402049086040F25B
:10360000CF20486000211D48816040F2E731C16051
:10361000002101618161FEF77FFF08B1FDF785F9A7
:103620004FF48050099009A91448FFF755F808B1E4
:10363000FDF77BF91148FFF77AFA08B1FDF775F944
:1036400000200790089007A90C48FEF717FF08B163
:10365000FDF76BF96020009000200190029004902B
:10366000042269460548FFF7E0F908B1FDF75DF966
:103670000248FFF783F90DB000BD00006001002093
:1036800000B587B00020039004900590069001904B
:10369000029015481549086041F61F404860002116
:1036A0001248816040F2E731C1600021016181610F
:1036B000FEF732FF08B1FDF738F94FF48050039060
:1036C00003A90A48FFF708F808B1FDF72EF9002012
:1036D0000190029001A90548FEF7D0FE08B1FDF760
:1036E00024F907B000BD000000040040A80100203C
:1036F0001CB50020009001900E480F49086041F66B
:103700001F40486000210C4881606321C160002196
:103710008161FEF701FF08B1FDF707F90020009075
:10372000019069460448FEF7A9FE08B1FDF7FDF8CF
:103730001CBD000000140040F001002010B50B4833
:103740000B4908604FF4E13048600021084881606F
:10375000C16001610C21416100218161C161FFF7FC
:103760009DFB08B1FDF7E1F810BD0000004C0040E2
:103770003802002010B50B480B4908604FF4E130C7
:103780004860002108488160C16001610C214161ED
:1037900000218161C161FFF781FB08B1FDF7C5F828
:1037A00010BD0000005000408002002010B50B4802
:1037B0000B4908604FF4E1304860002108488160FF
:1037C000C16001610C21416100218161C161FFF78C
:1037D00065FB08B1FDF7A9F810BD000000380140F5
:1037E000C802002010B50B480B4908604FF4E130C7
:1037F0004860002108488160C16001610C2141617D
:1038000000218161C161FFF749FB08B1FDF78DF827
:1038100010BD0000004400401003002010B50B480C
:103820000B4908604FF41650486000210848816039
:10383000C16001610C21416100218161C161FFF71B
:103840002DFB08B1FDF771F810BD000000480040E5
:103850005803002000BFFEE700BFFEE770470000EE
:1038600008B508490968C9084FF47A72B1FBF2F14A
:103870004143009100BF00BF00994A1E00920029F9
:10388000F9D108BD0C000020704710B5FEF7E0F834
:1038900010BD00B595B028210BA8FCF77CFC1421C5
:1038A00006A8FCF778FC18216846FCF774FC012098
:1038B0000B9000040C9000200D9001200F9002202E
:1038C0001290C10313914FF4E01114910BA8FEF76D
:1038D0004DFB08B1FDF729F80F2006900220079054
:1038E000002008904FF48060099000200A90022187
:1038F00006A8FEF717FA08B1FDF717F802200090A6
:10390000800302906846FEF775F908B1FDF70DF8DF
:1039100015B000BD7047000010B50248FEF763FF08
:1039200010BD0000A801002010B50248FEF75BFFA3
:1039300010BD0000F001002010B50268204B984235
:103940000ED0204B98420BD0B0F1804F08D01E4BC8
:10395000984205D01D4B984202D01D4B984203D18E
:1039600022F070024B681A43154B98420ED0154B4B
:1039700098420BD0B0F1804F08D0134B984205D03D
:10398000124B984202D0124B984203D122F440725B
:10399000CB681A4322F080034C6943EA04020260B8
:1039A0008B68C3620B688362054B984202D0054B5B
:1039B000984201D10B6903630123436110BD0000EC
:1039C000002C014000340140000400400008004089
:1039D000000C004030B50C46816821F47F4142EA7A
:1039E000032525432943816030BD0A46816821F0C3
:1039F000700142F0070319438160704730B5026AD5
:103A0000056A25F0010505624368846924F07004A5
:103A100024F003040D682C4322F002028D682A432F
:103A2000104DA84200D103E00F4DA84206D100BFBF
:103A300022F00802CD682A4322F00402094DA84270
:103A400002D0094DA84207D123F4807323F40073F8
:103A50004D692B438D692B43436084614D684563F9
:103A6000026230BD002C01400034014030B5026AD2
:103A7000056A25F0100505624368846924F4E04472
:103A800024F440740D6844EA052422F020028D6875
:103A900042EA0512124DA84200D103E0114DA8429E
:103AA00007D100BF22F08002CD6842EA051222F061
:103AB00040020B4DA84202D00A4DA84209D123F47E
:103AC000806323F400634D6943EA85038D6943EA0B
:103AD0008503436084614D688563026230BD0000E8
:103AE000002C01400034014030B5026A056A25F41B
:103AF000807505624368C46924F0700424F00304EF
:103B00000D682C4322F400728D6842EA0522124DA2
:103B1000A84200D103E0114DA84207D100BF22F412
:103B20000062CD6842EA052222F480620A4DA84272
:103B300002D00A4DA84209D123F4805323F4005344
:103B40004D6943EA05138D6943EA05134360C46177
:103B50004D68C563026230BD002C01400034014055
:103B600030B5036A056A25F4805505624468C26968
:103B700022F4E04222F440720D6842EA052223F466
:103B800000538D6843EA0533084DA84202D0084D22
:103B9000A84204D124F480444D6944EA8514446069
:103BA000C2614D680564036230BD0000002C014015
:103BB0000034014030B50B461446026A056A25F010
:103BC00001050562816921F0F00141EA041122F04A
:103BD0000A021A438161026230BD30B50B461446B9
:103BE000026A056A25F010050562816921F47041B9
:103BF00041EA043122F0A00242EA0312816102622A
:103C000030BD000010B50248FEF7D6FF10BD000021
:103C10003802002010B50248FEF7CEFF10BD0000AC
:103C20008002002070B505466C6A0020E085E084C3
:103C30002046FEF7BFFF70BD00BF00BF02680C3218
:103C400052E8002F22F4907102680C3242E800130F
:103C5000002BF3D100BF00BF00BF0268143252E84E
:103C6000002F22F001010268143242E80013002BF9
:103C7000F3D100BF016B01290ED100BF00BF026864
:103C80000C3252E8002F22F0100102680C3242E898
:103C90000013002BF3D100BF202180F84210002137
:103CA0000163704710B504462068C06820F04000EA
:103CB0002168C860202084F841002046FFF72FFBD0
:103CC000002010BDF8B5044694F84200222875D1B2
:103CD000A068B0F5805F0CD1206950B90025A66AB4
:103CE00020684068C0F308003080A06A801CA06291
:103CF00015E0A56A0026A068B0F5805F03D0A06833
:103D000028B9206918B920684068287004E0206844
:103D1000406800F07F002870A06A401CA062E08D1F
:103D2000401E80B2E085002846D12068C06820F09F
:103D300020002168C8602068C06820F48070216875
:103D4000C8602068406920F0010021684861202097
:103D500084F8420000206063206B012826D10020F7
:103D6000206300BF00BF21680C3151E8001F21F023
:103D7000100021680C3141E80002002AF3D100BF95
:103D80002068006800F0100010280AD100BF002051
:103D9000009020680068009020684068009000BF94
:103DA00000BFA18D2046FEF704FF02E02046FFF78A
:103DB0001BFA0020F8BD01E00020FBE70220F9E734
:103DC00070B504462168096921F44051E268114345
:103DD000226811612269A1681143626941EA020502
:103DE0002168C96841F20C62914329432268D1607D
:103DF0002168496921F44071A26911432268516127
:103E00002D4A2168914202D1FEF768F801E0FEF7E1
:103E100055F800EBC00101EB001162689200B1FBA4
:103E2000F2F100EBC00202EB001263689B00B2FBF0
:103E3000F3F26423B2FBF3F202EBC20303EB0212D0
:103E4000A1EB8201322202EB01116422B1FBF2F1FB
:103E500001F0F00100EBC00202EB001263689B006E
:103E6000B2FBF3F26423B2FBF3F201EB021200EBBC
:103E7000C00101EB001163689B00B1FBF3F100EBA3
:103E8000C00303EB00136668B600B3FBF6F36426C9
:103E9000B3FBF6F303EBC30606EB0313A1EB8301BD
:103EA000322303EB01116423B1FBF3F101F00F01A5
:103EB00011442268916070BD0038014010B503467E
:103EC00099629A85DA8500205864222083F842009E
:103ED000186928B11868C06840F480701C68E060F8
:103EE0001868406940F001001C6860611868C0688B
:103EF00040F020001C68E060002010BD014691F8F1
:103F00004100212828D18868B0F5805F0BD108696D
:103F100048B90A6A1088C0F308000B685860086A3C
:103F2000801C086205E00B6A581C086218780B6850
:103F30005860C88C401E80B2C88458B90868C068F0
:103F400020F080000B68D8600868C06840F040002E
:103F50000B68D860002070470220FCE72DE9F04193
:103F600004460D4617469846069E34E0701C88B3FA
:103F70002EB1FDF745FCA0EB0800B0422BD900BFE5
:103F800000BF21680C3151E8001F21F4D070216876
:103F90000C3141E80002002AF3D100BF00BF00BF8E
:103FA0002168143151E8001F21F00100216814310B
:103FB00041E80002002AF3D100BF202084F841002C
:103FC00084F8420000BF002084F8400000BF0320B6
:103FD000BDE8F081FFE7206800682840A84201D1D1
:103FE000012000E00020B842C0D00020F0E700002F
:103FF00010B50248FEF7E0FD10BD0000C802002029
:1040000010B50248FEF7D8FD10BD000010030020D7
:1040100010B50248FEF7D0FD10BD00005803002087
:1040200000BFFEE70FB4054B10B503A9044A029880
:1040300000F00AF910BC5DF814FB0000994B000871
:104040004C0000200FB4084B10B504A902AA039835
:1040500000F0FAF8044602A9002000F08CFC20468B
:1040600010BC5DF814FB00007749000802480068A6
:10407000C0F30220704700000CED00E010B50028EE
:1040800004DB0A07130E054A135406E00A07140E50
:10409000034A00F00F031B1FD45410BD00E400E0DE
:1040A00018ED00E002E008C8121F08C1002AFAD18A
:1040B00070477047002001E001C1121F002AFBD1A8
:1040C000704700002DE9FF5F82B00021DDE9043078
:1040D000020DDDF840B0034318D044F61050A2F2B0
:1040E000FF3242431514119801281FD0A5EB0B0095
:1040F000401C5FEA000A4FF000064E4FDFF838918F
:10410000B046504615D5CAF1000413E011980124B9
:104110004AA3012801D16FEA0B010298119AC0E964
:104120000031C0E9024206B0BDE8F09FCBF10000CB
:10413000DFE704460021404A491842EB0450CDE92C
:10414000001012E0E00707D032463B4640464946A1
:10415000FCF74DF98046894632463B4610461946E3
:10416000FCF745F906460F466410002CEAD1DDE95C
:104170000401DDE90023BAF1000F06DAFCF737F994
:1041800042464B46FCF733F905E0FCF7A2F94246FC
:104190004B46FCF79EF904460E460022284BFCF7DE
:1041A00059FB03D84FF0FF30014607E00022254BB2
:1041B00020463146FCF774F8FCF733FB102409E085
:1041C000002C0ADB0A220023FCF745FA039B30325D
:1041D0001A55641E50EA0102F2D1641C039AC4F11C
:1041E00011031444119A012A03D0012208430DD16E
:1041F0000AE0084304D000204FF0110B119072E741
:10420000A3EB0B056D1E0DE05B4504DD4FF00002D6
:1042100005F1010504E003DA4FF00002A5F1010504
:10422000002AECD002981199C0E90231C0E900459A
:1042300079E70000000014400000F03F300000006B
:104240000000F0430000E03F2DE9FF4F95B09B4692
:104250008946064600250FE2252877D10024274607
:10426000F84A0121059400E0044316F8013F203B81
:1042700001FA03F01042F7D130782A2811D06FF0FC
:104280002F033078A0F13002092A16D8059A44F09D
:10429000020402EB820203EB42021044761C0590FA
:1042A000EFE759F8042B0592002A03DA504244F450
:1042B0000054059044F00204761C30782E2816D164
:1042C00016F8010F44F004042A280DD06FF02F02D5
:1042D0003078A0F13003092B09D807EB870302EBF4
:1042E0004303C718761CF3E759F8047B761C307833
:1042F0006C280FD006DC4C2817D068280DD06A280F
:1043000014D104E0742810D07A280FD10DE044F4C1
:1043100000140AE044F4801401E044F4401472787C
:10432000824202D104F58014761C761C307866280F
:104330000BD013DC582877D009DC002875D045282D
:10434000F6D04628F4D047281AD19DE118E063281A
:1043500035D0642879D0652812D195E1702873D0C2
:1043600008DC6728F1D069286FD06E280DD06F283F
:1043700006D1B5E073282CD0752875D0782874D074
:104380005A46179990476D1C75E1C4F302500228F4
:1043900009D003280DD0D9F8001004280DD00D60E5
:1043A00009F1040967E1D9F80010EA17C1E90052E0
:1043B000F6E7D9F800100D80F2E70D70F0E719F874
:1043C000041B8DF8001000208DF80100EA46012042
:1043D00003E059F804AB4FF0FF3061074FF00001E4
:1043E00002D40DE008F101018846B9420FDA804598
:1043F000F8DB1AF808100029F4D108E008F10101EF
:1044000088468142FADB1AF808100029F6D105988F
:104410005B46A0EB080721463846179A00F094FA4D
:10442000284400EB080507E04DE029E10DE01AF80B
:10443000010B5A4617999047B8F10108F7D25B462D
:1044400021463846179A13E142E00A220092C4F34B
:1044500002524FF0000A022A08D059F804CB032A6E
:104460004FEAEC710AD00DE029E02AE009F10701DA
:1044700021F00702F2E802C1914609E00FFA8CFC34
:104480004FEAEC71042A03D14FFA8CFC4FEAEC712D
:10449000002907DA0A460021DCF1000C61EB020179
:1044A0002D2202E0220504D52B228DF804200122C2
:1044B00003E0E20701D02022F7E7904659E00A2105
:1044C00002E010220DE010214FF0000A00910BE0F5
:1044D00010224FF0000A44F004040827009203E081
:1044E00008224FF0000A0092C4F30252022A05D0BB
:1044F00059F804CB0021032A08D009E009F107018B
:1045000021F00702F2E802C1914605E01FFA8CFC97
:10451000042A01D10CF0FF0C4FF00008220728D527
:10452000702806D0009B83F0100353EA0A0305D0DD
:104530000EE040228DF80420012208E05CEA01022E
:1045400006D030228DF804208DF805000222904616
:10455000009B83F0080353EA0A030AD15CEA0102D4
:1045600001D1620705D530228DF804204FF00108F3
:104570007F1E582804D034A003900EA802900DE0AE
:1045800036A0F9E753466046009AFCF764F8844683
:104590000398825C0298401E029002705CEA01005F
:1045A000F0D1029806A9081A00F1200A600702D586
:1045B00024F4803400E00127574502DDA7EB0A0010
:1045C00000E0002000EB0A01009005984144401AE9
:1045D0000590E00306D45B462146179A059800F043
:1045E000B3F90544002706E001A85A46C05D1799B3
:1045F00090476D1C7F1C4745F6DBE0030CD55B46FE
:104600002146179A059800F09FF9054404E03020F0
:104610005A46179990476D1C0099481E0090002932
:10462000F5DC08E0029802995A460078491C02918C
:10463000179990476D1CBAF10001AAF1010AF1DC4B
:1046400065E1000009280100303132333435363756
:1046500038396162636465660000000030313233CE
:10466000343536373839414243444546000000006E
:1046700000F058F90544761C307800287FF4ECAD42
:1046800019B02846BDE8F08F620700D4062709F16B
:10469000070222F0070CFCE80223E14603F0004881
:1046A0005FEA080C02D00FF2702C0DE05FEA045CA8
:1046B00002D50FF2682C07E05FEAC47C02D00FF24B
:1046C000602C01E0AFF2700C4FF0FF3823F0004394
:1046D000CDF850C065280CD006DC452809D0462806
:1046E0001DD047283DD13DE0662818D067287ED1EF
:1046F00038E00021112F01DB112000E0781CCDE90A
:10470000000106A90EA8FFF7DDFCDDE90F010E9AF6
:1047100003910021009207F1010A04914DE04FF04E
:1047200000400097CDE9011006A90EA8FFF7CAFCCA
:10473000DDE90F0203920E9B11990022DDF80CA017
:104740000093049211B9791C00EB010AB7EB0A003F
:1047500004D4C0F1FF3007F1010A0490AAEB07006E
:10476000019044E0012F00DA01270021112F01DD23
:10477000112000E03846CDE9000106A90EA8FFF798
:10478000A1FCDDE90F010E9A039100210491009232
:10479000BA4621070CD40399514500DA8A46BAF18A
:1047A000010F05DD009AAAF10101515C302908D002
:1047B000B84202DA10F1040F06DA0121CDE9011046
:1047C00015E0AAF10101E9E7002805DC049901449C
:1047D0000491AAEB000102E0411C514500DD8A462C
:1047E0000499401A401C01904FF0004002902007AD
:1047F00004D40198504501DBCDF8048000208DF8E9
:104800004F0002980DF14F07B0F1004F25D02B203B
:104810000E9002984FF0020800280CDA40420290F5
:104820002D200E9007E00A210298FBF7FEFE3031A2
:10483000029007F8011DB8F10001A8F10108F2DCAF
:1048400002980028EFD1791E0E980870307800F099
:10485000200040F0450007F8020D12A8C01B00F12F
:1048600007081498007800B1012000EB0A010198B4
:1048700001EBE07105984144401A401E0590E003A9
:1048800006D45B462146179A059800F05DF805446A
:104890001498007818B15A46179990476D1CE00398
:1048A00024D55B462146179A059800F04DF805443B
:1048B0001CE00498002807DBDDE90301884203DDE2
:1048C0000098405C179901E0179930205A469047AC
:1048D000049805F10105401C04900198401E0190C8
:1048E00004D12E205A46179990476D1CBAF1000149
:1048F000AAF1010ADDDC05E017F8010B5A46179909
:1049000090476D1CB8F10001A8F10108F4DC5B468A
:104910002146179A0598ABE62D0000002B000000F9
:10492000200000002DE9F041044600251E461746F0
:10493000880404D405E039462020B0476D1C641E6D
:10494000F9D52846BDE8F0812DE9F041044600255F
:104950001E469046C80301D5302700E02027880472
:1049600004D505E041463846B0476D1C641EF9D5B4
:104970002846BDE8F0810A68531C0B601070704730
:104980003EB5002000900190029000BF12E003218C
:1049900090FBF1F201FB12015DF82110154A52F86B
:1049A00020201144032290FBF2F302FB13024DF886
:1049B0002210401CB0F5967FE9DB64210098B0FB23
:1049C000F1F00D49088064210198B0FBF1F00B492A
:1049D000088064210298B0FBF1F00949088008467C
:1049E000008800F0FFF80446204600F0E3F805498F
:1049F00008803EBDD00F00201400002016000020CB
:104A0000180000201A00002030B50546284600F0A6
:104A100013F90446002009E0002204EB84110C4B3A
:104A200003EBC101C91C0A54411C88B204EB841178
:104A3000074A02EBC101B1F804128142ECDC00200C
:104A400004EB841102EBC101A1F8040230BD0000A7
:104A5000A003002000BF011EA0F10100FBD17047A0
:104A600010B500224FF400710B48FCF7C3FE4FF461
:104A70007A70FCF701FD012251020748FCF7BAFEEB
:104A80004FF47A70FCF7F8FC044800F015F804487D
:104A900000F012F810BD0000000C0140C802002018
:104AA0001003002010B504466FF001002168086172
:104AB0002046FDF7C9FD10BD70B50546284600F03B
:104AC000BBF80446052C01DC012C04DA214612A0B7
:104AD000FFF7A8FA1FE0012004EB8411164A02F840
:104AE000310004EB841102EBC1014870002004EB9B
:104AF000841102EBC101A1F8040204EB841002EB63
:104B0000C00000F2062101222846FEF757FB21468D
:104B10000AA0FFF787FA70BDB4AEBFDAB3F5CABC1E
:104B2000BBAFD2ECB3A3A3ACB5B1C7B0B4AEBFDAE0
:104B3000BAC53A2564000000A0030020D2D1BEAD62
:104B4000BFAAC6F4B4AEBFDA2564B5C4BDD3CAD516
:104B5000D6D0B6CF0A00000010B50C4890F80A0273
:104B600038B10B490B4800F0EBFA0021074880F8F8
:104B70000A12064890F8120438B10649044800F0B9
:104B8000DFFA0021014880F8121410BDA0030020B4
:104B900010030020C802002013B50C464FF6FF7327
:104BA000012269460248FEF761FB00981CBD000027
:104BB000C802002001464FF47A7200200AE0084B38
:104BC00033F820308B4204DA054B03EB80035A881C
:104BD00003E0401CB0F58C7FF1DD00BF104670474C
:104BE0000A5200082DE9F84F82465046FBF7E0FCD8
:104BF00080460D4A0D4BFBF7FAFB064632460B4644
:104C000000200B49FBF765FC0446FBF7F2FC8346EA
:104C100008495846FBF73EFB0446FBF7D6FC80B23A
:104C200000900098BDE8F88F9A9999999999F13F69
:104C30000088634100401C45014600200F4B0A6874
:104C40001B689A4200D101200D4B0A681B689A42EA
:104C500000D102200B4B0A681B689A4200D1032046
:104C6000094B0A681B689A4200D10420074B0A6866
:104C70001B689A4200D1052070470000C80200203E
:104C8000100300205803002038020020800200207A
:104C9000012047E000EB8011244A12F8311001296D
:104CA0003ED100EB801102EBC1014978012906D009
:104CB000022905D003290BD004292FD11FE02EE0B3
:104CC000032100EB8012194B03EBC202517026E066
:104CD00000EB8011154A02EBC101B1F80412022960
:104CE0000CDD042100EB8012104B03EBC20251706B
:104CF000012100EB801203EBC20291700FE000EB88
:104D000080110A4A02EBC101897831B9012100EB17
:104D10008012064B03EBC202517000E000BF00BFDF
:104D2000411CC8B20528B5DB70470000A003002075
:104D3000FCF79AFEFEF7ADFDFEF754FBFEF738FBDD
:104D4000FEF734FDFEF79CFCFEF748FCFEF7D0FCB6
:104D5000FEF748FDFEF7F2FCFEF70CFDFEF75EFDE8
:104D6000FEF7B2FBFEF7CEFBFEF7DCFA00F00CFA22
:104D700001E000F02BFAFCE770B504462046FBF793
:104D800027FA85B202210848FCF72AFD2A46214667
:104D900006A0FFF747F94FF47A732A4621460A48DE
:104DA000FEF764FA70BD0000000C0140B7A2CBCD45
:104DB0004154D6B8C1EEA3BA257320A3ACB3A4B6B0
:104DC000C820256420A1A3001003002070B586B080
:104DD00004462046FBF7FCF985B22A460FA101A83C
:104DE000FFF730F901A8FBF7F3F986B24FF47A73B5
:104DF000324601A90D48FEF739FA0D48FFF72AFEA1
:104E00002A4621460BA0FFF70DF94FF47A732A4684
:104E100021460648FEF72AFA06B070BD41542B43DE
:104E2000495053454E443D25640D0A0010030020AF
:104E3000FFFF0F00CFF245535038323636B7A2CBC2
:104E4000CDCAFDBEDDA3BA257320B3A4B6C82564C0
:104E50000A00000010B516A01A4908601AA04860A0
:104E60001AA088601D4B1E4A1EA12548FFF7EAF8CC
:104E700023481449C86014A11248016121A141616D
:104E8000244B254A25A12C48FFF7DCF82A480D4978
:104E900088610DA10B48C16128A1016203202C4942
:104EA000087000202B49087001202B49087010BDA4
:104EB00041542B43574D4F44455F4445463D310DCA
:104EC0000A000000801400204F4B0000535441C4DE
:104ED000A3CABDC9E8D6C3B4EDCEF30025000020B7
:104EE0001C00002041542B43574A41505F44454623
:104EF0003D222573222C222573220D0A000000007A
:104F000078150020BCD3C8EBCDF8C2E7CAB1B4ED28
:104F1000CEF300003A0000202E00002041542B4325
:104F2000495053544152543D22544350222C22257F
:104F300073222C25730D0A00B8150020C1ACBDD317
:104F4000544350B7FECEF1C6F7B4EDCEF3000000E7
:104F500041000020400000203F00002010B54D48D7
:104F6000007800286FD14C480078012806D002282C
:104F700011D003283DD004280CD171E047490978AD
:104F800001EB4101464A52F82100FFF7F5FE0220ED
:104F9000414908707CE0434890F81204B0B14FF4E6
:104FA000FA704149086003203B4908703F49404876
:104FB000FBF715F93E493FA0FFF734F84248FFF7E9
:104FC00023FD0021374880F8121411E036480068AC
:104FD000401E354908600846006848B93BA0FFF705
:104FE00021F801202C4908704FF4FA702E4908600E
:104FF0004EE02A48007800EB4000294901EB800090
:10500000446821462A48FBF7D1F830B104202249F0
:10501000087000203049086021E002201E49087015
:105020002D480068401C2C490860084601682BA0E8
:10503000FEF7F8FF284800680A2810D91848016AC6
:105040002548026800E024E027A0FEF7EBFF0120DE
:1050500011490870FFF7FEFE00201F49086017E0A5
:1050600001200D4908700D480078401C0B4908705C
:105070000846007826490978884208D10120054968
:10508000087024A0FEF7CEFF27A0FFF79FFE00BF09
:1050900000BF10BD420000203F0000204000002063
:1050A00080140020A003002044000020B30700204B
:1050B000F8140020B4AEBFDA32CAD5B5BDCAFDBE01
:1050C000DDA3BA257300000010030020B5C8B4FDAD
:1050D000B3ACCAB1A1A30A00480000206572726F88
:1050E00072A3BA25640A000025732CB4EDCEF3B484
:1050F000CECAFDB9FDB6E0A3BA2564A3ACD2D1BE39
:10510000ADD6D8C6F4455350383236360A000000C2
:105110004100002045535038323636C9E8D6C3CD59
:10512000EAB1CFA1A30D0A0048656C6C6F202C205A
:1051300074686973206973204553503832363600DD
:105140002DE9F04106460C463046FFF775FD054651
:105150002046FFF771FD074605EB8510094B03EB71
:10516000C000B0F8042205EB851003EBC000C11CA1
:105170004FF0FF332046FEF779F83046FFF744FC46
:10518000BDE8F081A003002010B50548FFF78AFCB8
:1051900004A0FEF747FFFFF763FCFFF75BFE10BDBF
:1051A000F0010020D2D1BEADBFAAC6F4D7B4CCACBA
:1051B000BBFAB6A8CAB1C6F7D6D0B6CFA1A30A002B
:1051C00010B5FFF765FDFFF7C9FE10BD10B5034828
:1051D000007808B1FFF7C0FC10BD000042000020BD
:1051E00002030405060708090A0B0C0D0E0F101028
:1051F0000102000000000000000001020304060795
:1052000008090000000001020304409C0100EE6652
:105210000200A0500300D0430400423B05001635B5
:10522000060066300700A62C08009A290900062708
:105230000A00E0240B00F6220C0052210D00E01FB2
:105240000E00961E0F006A1D10005C1C1100621BF0
:105250001200861A1300B4191400F618150042182B
:105260001600A21717000C17180076161900F4156F
:105270001A0072151B00FA141C008C141D0028144F
:105280001E00BA131F006013200006132100AC1289
:1052900022005C1223000C122400BC1125007611A0
:1052A000260030112700EA102800AE1029007210E5
:1052B0002A0036102B00FA0F2C00C80F2D008C0F7F
:1052C0002E005A0F2F00280F3000000F3100CE0E95
:1052D00032009C0E3300740E34004C0E3500240E48
:1052E0003600FC0D3700D40D3800AC0D3900840DAC
:1052F0003A00660D3B003E0D3C00200D3D00020DC6
:105300003E00E40C3F00C60C40009E0C41008A0C9D
:1053100042006C0C43004E0C4400300C4500120C53
:105320004600FE0B4700E00B4800CC0B4900AE0BDB
:105330004A009A0B4B007C0B4C00680B4D00540B41
:105340004E00400B4F00220B50000E0B5100FA0A8A
:105350005200E60A5300D20A5400BE0A5500AA0AB7
:105360005600960A5700820A5800780A5900640AC3
:105370005A00500A5B003C0A5C00320A5D001E0ABB
:105380005E000A0A5F00000A6000EC096100E209A1
:105390006200CE096300BA096400B00965009C0987
:1053A00066009209670088096800740969006A0943
:1053B0006A0056096B004C096C0042096D003809FF
:1053C0006E0024096F001A09700010097100FC08B2
:1053D0007200F2087300E8087400DE087500D40853
:1053E0007600CA087700B6087800AC087900A208F1
:1053F0007A0098087B008E087C0084087D007A087B
:105400007E0070087F00660880005C0881005208FA
:105410008200480883003E088400340885002A087A
:10542000860020088700160888000C0889000208FA
:105430008A00F8078B00EE078D00E4078E00DA077C
:105440008F00D0079000C6079100BC079300B207F9
:105450009400A80795009E079600940798008A0775
:10546000990080079A0076079B006C079D006207F1
:105470009E005807A0004E07A1004407A2003A076B
:10548000A4003007A5002607A7001C07A8001207E4
:10549000AA000807AB00FE06AD00F406AF00EA065E
:1054A000B000E006B200D606B400CC06B500C206D5
:1054B000B700B806B900AE06BB00A406BC009A0649
:1054C000BE009006C0008606C2007C06C4007206BC
:1054D000C6006806C8005E06CA005406CC004A062C
:1054E000CE004006D0003606D2002C06D40022069C
:1054F000D7001806D9000E06DB000406DE00FA0508
:10550000E000F005E200E605E500DC05E700D20575
:10551000EA00C805ED00BE05EF00B405F200AA05DB
:10552000F500A005F8009605FA008C05FD0082053F
:105530000001780503016E05060164050A015A059C
:105540000D0150051001460513013C0517013205F8
:105550001A0128051E011E052101140525010A0551
:10556000290100052C01F6043001EC043401E204A9
:105570003801D8043D01CE044101C4044501BA04F8
:105580004A01B0044E01A60453019C045801920440
:105590005C01880461017E04660174046C016A0484
:1055A00071016004760156047C014C0482014204BE
:1055B000870138048D012E04930124049A011A04F2
:1055C000A0011004A7010604AE01FC03B401F2031C
:1055D000BC01E803C301DE03CA01D403D201CA033C
:1055E000DA01C003E201B603EB01AC03F301A2034D
:1055F000FC01980305028E030E02840318027A034D
:10560000220270032C02660337025C03420252033B
:105610004D02480358023E036402340371022A0318
:105620007D0220038A02160398020C03A6020203DD
:10563000B402F802C302EE02D302E402E302DA0289
:10564000F402D0020503C6021703BC022903B2020A
:105650003D03A80251039E02650394027B038A0264
:1056600092038002A9037602C1036C02DB030000EF
:10567000905600080000002050000000A4400008E0
:10568000E056000850000020A8190000B4400008AF
:105690000000000010000000010000000024F400E1
:1056A0000000FFFF0000000000000000303030303C
:1056B000303030300031323334353637380031391C
:1056C000322E3136382E332E34003737373700003C
:1056D00000000000F40100000000000000000000D5
:0400000508000131BD
:00000001FF
